:020000040000FA
:1000000070070020D5000000F5000000F700000098
:1000100000000000000000000000000000000000E0
:10002000000000000000000000000000F9000000D7
:100030000000000000000000FB000000FD000000C8
:10004000FF000000FF000000FF000000FF000000B4
:10005000FF000000FF000000FF000000FF000000A4
:10006000FF000000ED0D0000490E0000FF00000041
:10007000CD0E0000F90E0000FF000000FF000000A0
:10008000FF000000FF000000FF0000003506000038
:10009000FF000000FF000000FF000000FF00000064
:1000A000FF000000FF000000FF000000FF00000054
:1000B000FF000000FF000000FF000000FF00000044
:1000C0000348854600F054F800480047E91E000048
:1000D000700700200A480B4901600B4901600B4979
:1000E00001600B4A0B491160002101600A488047FA
:1000F0000A480047FEE7FEE7FEE7FEE7FEE7FEE709
:1001000000010050590000001600000088000000A7
:1001100024000050A55A0000D90C0000C1000000C6
:1001200030B50B46014600202022012409E00D468F
:10013000D5409D4205D31D469540491B2546954017
:1001400040191546521E002DF1DC30BD03460B430D
:100150009B070AD102E008C9121F08C0042AFAD27C
:1001600003E00B780370491C401C521EF9D2704703
:10017000064C0125064E05E02046E36807C82B43E0
:1001800098471034B442F7D3FFF79EFFA42900002C
:10019000C429000070B58C180578401C6B075B0FF4
:1001A00001D10378401C2A1106D10278401C03E0DB
:1001B00006780E70401C491C5B1EF9D12B0706D433
:1001C000002301E00B70491C521EFBD50AE00378A6
:1001D000401CCB1A921C03E01D780D705B1C491C5F
:1001E000521EF9D5A142D7D3002070BD064AC10FD7
:1001F00089005258C306DB0E012199400A43024B85
:10020000C10F89005A50704708020050FEB5002007
:10021000029019A0006800901848046A0013044274
:1002200001D00020FEBD0120C004044201D0144DC5
:1002300000E0144D01204004044201D02846F1E7BB
:10024000032080032040800B69460A5C0192E00590
:10025000C00D861C1F2040022040400A871C019AC6
:100260007A431146AA0872431046FFF759FF8000EF
:1002700002900298D6E7000001020204000200503A
:1002800000805101001BB700FEB50020029019A0AC
:10029000006800901848046A0013044201D000204E
:1002A000FEBD0120C004044201D0144D00E0144DF5
:1002B00001204004044201D02846F1E703208003D6
:1002C0002040800B69460A5C0192E005C00D861C47
:1002D0001F2040022040400A871C019A7A431146A1
:1002E000AA0872431046FFF71BFF80000290029895
:1002F000D6E7000001020204000200500080510114
:10030000001BB700F0B5002300240025C600360FFF
:100310000FD0124E4700BF0FBF00F4192368C6006C
:10032000360FC701FF0EBE401F46B7430F433B4683
:1003300023608603360E10D0084E08360703BF0F21
:10034000BF00F5192B688603360EF6438705FF0EAE
:10035000BE401E40164333462B60F0BD10020050D5
:10036000064904E00A46491E002A00DC04E0044A6B
:10037000D26802408242F5D100BF704790D003009E
:10038000000200501A49097800292FD019494978EC
:10039000184A92788918174AD2788918154A12791A
:1003A0008918144A52798918124A92798918114A7F
:1003B000D27989180F4A1278511A491CC8B20D49CE
:1003C000097A81420DD10B4989780902094AD2780C
:1003D0008918094A918311468A8B098A5118064A5D
:1003E00091830021054A1160014A11707047000095
:1003F00018010020F00400206001002014010020FA
:1004000000B589B006A80EA10EC90EC003A80FA1A1
:100410000EC90EC0684610A10EC90EC008224B219D
:10042000C9010020034601F0A9FE502001F0EAFEB8
:10043000092203A90B4800F0C7FD09B000BD000068
:10044000FF0179000000000086000000FF0199070D
:10045000D00000008F000000FF018807D0000000DE
:10046000A0000000000015400EB568460AA10EC9A4
:100470000EC00C4800680C490968401AE121C90007
:10048000884208D30748006807490860092269467E
:10049000064800F099FD0EBDFF0186000000000037
:1004A00079000000200100202401002000001540F8
:1004B00010B50B4909680B4A1268891A7D22D200CF
:1004C00091420CD306490968064A116000F06CFAA3
:1004D000002804DD0112044AD183C1B2118410BD89
:1004E00020010020300100206001002010B50446EA
:1004F00000BF7D20C00000F005F8641E002CF8D17C
:1005000010BD0000084909684143084A51610021B3
:1005100091610521116100BF04490969012212049A
:100520001142F9D0704700000001002000E000E017
:1005300072B6704762B6704770B500230EE00124B2
:100540009C400C4209D004685E000325B540AC43D2
:100550005E001546B5402C4304605B1C082BEED3AF
:1005600070BD000008B5002000900022E02117486F
:10057000FFF7E2FF0022102114488030FFF7DCFF74
:10058000134840696B4618701148806958701048CC
:10059000C06998700E4840300069D870187818709B
:1005A00058784006000E587098788006000E9870B3
:1005B000D878C006000ED870187859784018997805
:1005C0004018D9784018C0B208BD000080400050E3
:1005D0004042005010B5012213211448FFF7ACFF30
:1005E00001220F2111484038FFF7A6FF0122042104
:1005F0000E48C030FFF7A0FF00200D490862486296
:100600000863086048608860C86009498031886074
:1006100003221C2105484030FFF78EFF03220121F1
:100620000248C030FFF788FF10BD00004040005076
:100630000042005010B50B48C4684069C007C00FA5
:1006400001214840484003D0064800F00FF807E079
:1006500005480068002803D02046034909688847F8
:1006600010BD000000001240380100204169012245
:10067000114341617047000000B50F4800680F4901
:100680000968401A322807D30B4800680B490860F4
:1006900000F060F800F018F80948006909498882FC
:1006A000074840300068C8820548C068088304488D
:1006B0008068488300BD0000200100200C0100205C
:1006C000404200506001002020480078C007C00F61
:1006D0000AD01F480088002803D000201C49088049
:1006E00002E001201A4908801848007802210842D7
:1006F0000AD017484088002803D0002014494880B9
:1007000002E0012012494880104800780421084284
:100710000AD00F488088002803D000200C49888028
:1007200002E001200A498880084800780821084230
:100730000AD00748C088002803D000200449C88098
:1007400002E001200249C88070470000100100202B
:1007500060010020002019490969002903D1FE2108
:10076000174A11701BE0154940310968002903D16F
:10077000FD21134A117012E01049C968002903D104
:10078000FB210F4A11700AE00C498968002903D146
:10079000F7210B4A117002E0FF21094A1170084944
:1007A0000978FF2251400846064909784140014036
:1007B000054A11700349087070470000404200501C
:1007C000080100201101002010010020C206D20EF5
:1007D00001219140014A11607047000000E100E0F2
:1007E000C206D20E01219140014A116070470000FB
:1007F00000E100E010B5002819DA1A4A03071B0FC0
:10080000083B9B089B00D2588307DC0EFF23A340C4
:100810009A438B071B0E8407E40EA3401A43114B27
:100820000407240F083CA408A4001A5118E00E4A3B
:1008300003231B02D21883089B00D3588207D40ECF
:10084000FF22A24093438A07120E8407E40EA240BF
:100850001343054A0324240212198408A4001351E7
:1008600010BD00001CED00E000E100E010B5002824
:1008700019DA1A4A03071B0F083B9B089B00D25842
:100880008307DC0EFF23A3409A438B071B0E8407CC
:10089000E40EA3401A43114B0407240F083CA4089C
:1008A000A4001A5118E00E4A03231B02D218830831
:1008B0009B00D3588207D40EFF22A24093438A079D
:1008C000120E8407E40EA2401343054A03242402B7
:1008D00012198408A400135110BD00001CED00E0A3
:1008E00000E100E010B5002819DA1A4A03071B0FCF
:1008F000083B9B089B00D2588307DC0EFF23A340D4
:100900009A438B071B0E8407E40EA3401A43114B36
:100910000407240F083CA408A4001A5118E00E4A4A
:1009200003231B02D21883089B00D3588207D40EDE
:10093000FF22A24093438A07120E8407E40EA240CE
:100940001343054A0324240212198408A4001351F6
:1009500010BD00001CED00E000E100E070B50026D5
:1009600000241AE000BF0F48806B0028FBD0322023
:10097000FFF7C8FD0B48806BC5B27006060E012D4F
:1009800007D10120064300BF0648806B0028FBD139
:1009900001E0FE200640601CC4B2082CE2DB3046B9
:1009A00070BD000000420050FEB500201E49886363
:1009B0001420FFF79BFD01201B4988633220FFF7BD
:1009C000A1FD72B61848806B002829D100BF1648D7
:1009D000806B0028FBD000BF1348806B0028FBD140
:1009E000FFF7BCFF0446FFF7B9FF0546FFF7B6FF68
:1009F0000646FFF7B3FF0746FFF7B0FF019062B668
:100A000061198919C9190198814209D10094009C82
:100A1000200200900098801980B200900098FEBDDE
:100A200062B60020FBE700000042005000B503461C
:100A300000F0E3FA180D1C2B3A4B5A697887888925
:100A40008A8B8C8D8E8F9091929394959697012995
:100A500004D100BF0122444B1A6206E0022904D1EE
:100A600000BF0022404B1A6200BF7AE0012904D186
:100A700000BF01223C4B5A6206E0022904D100BFAC
:100A80000022394B5A6200BF6BE0012904D100BF3C
:100A90000122354B1A6306E0022904D100BF00226F
:100AA000314B1A6300BF5CE0012905D100BF012270
:100AB0002D4B80339A6007E0022905D100BF002248
:100AC000294B80339A6000BF4BE0012904D100BF5D
:100AD0000122254BDA6006E0022904D100BF002282
:100AE000214BDA6000BF3CE0012904D100BF0122A4
:100AF0001D4B9A6006E0022904D100BF00221A4B68
:100B00009A6000BF2DE0012904D100BF0122164BDD
:100B10005A6006E0022904D100BF0022124B5A603D
:100B200000BF1EE0012904D100BF01220E4B1A6054
:100B300006E0022904D100BF00220B4B1A6000BF5F
:100B40000FE00EE00DE00CE00BE00AE009E008E049
:100B500007E006E005E004E003E002E001E000E079
:100B600000BF00BF00BD00000042005010B50024CF
:100B700028E060001549085A6100154A505260008B
:100B80001146085A6100134A515A884218D0600031
:100B90000F49085A002804D102212046FFF746FFDA
:100BA00008E060000A49085A012803D101212046C3
:100BB000FFF73CFF60000649085A6100054A5052A1
:100BC000601CC4B2082CD4DB10BD00006001002002
:100BD000E0040020D004002010B51648006804216D
:100BE0000843144908601020FFF7BAFB0720114999
:100BF00008610846006AC90108430E4908620846B0
:100C00000068012108430B4908600B480862052071
:100C1000FFF7A6FB1A2007490861084888600848C2
:100C2000486100F027F8032005210907C863800206
:100C3000486310BD00020050174200001800030076
:100C4000002002010A49020E92008A5801218140C7
:100C50000A430749030E9B00CA50020E92008A58AD
:100C6000012181408A430249030E9B00CA5070470C
:100C70000800005070B51248006945076D0FFFF776
:100C800003FB10490860022D03D0A8000E490C5840
:100C900001E00C4804680A4880690007000F461C00
:100CA00031462046FFF73CFA0849086008490748E2
:100CB00000684A108018FFF733FA0649086070BDD3
:100CC000000200500401002084290000FC000020E4
:100CD00040420F00000100207047016801225207C6
:100CE000114301607047000030B589B004462022EE
:100CF000194901A8FFF72AFA1848844206D1184872
:100D00004069072109020840050A1AE0134820300B
:100D1000844206D112484069072109030840050BA7
:100D20000FE01048844206D10D48406907210904AC
:100D30000840050C05E00A484069072109050840FC
:100D4000050D022D03D10848006809B030BDA80088
:100D500001A90858F9E7000034290000000001400B
:100D60000002005000001140FC000020F7B582B0E6
:100D700004460D462046FFF7B7FF06460027002031
:100D8000019070080499884201D202271BE00120DB
:100D90008006864203D307200190F6080EE001206A
:100DA0004006864203D303200190B60806E00120E6
:100DB0000006864202D3012001907608304604994D
:100DC000FFF7AEF907460198284320606760019855
:100DD000401C784301463046FFF7A2F905B0F0BD4C
:100DE00001680122920711430160704710B500BFEE
:100DF00011488068C007C00F01281BD100BF0E49F1
:100E0000886000BF0D480078002810D00C480068AA
:100E1000401C0B490860084600680A490988884256
:100E200008DB01F01FF900200549086002E00020FE
:100E30000349086010BD00002000014004000020AC
:100E4000080000200C00002000B500BF1948806891
:100E5000C007C00F01282CD100BF1649886000BF11
:100E600015480068401C14490860084600681428AA
:100E700006D30020086011480068401C0F49086034
:100E80000F480078002811D00E480068401C0D491A
:100E90000860084600680849091D0988884208DB7F
:100EA00001200949087001F097F902E00020054986
:100EB000086000BD00001140280100202001002032
:100EC000190100201C0100201801002010B509485C
:100ED000C069C007C00F02D001F0CCF808E0054897
:100EE0008069012109070840000F01D001F0CAF80C
:100EF00010BD00000000054000B50B48C069C007E8
:100F0000C00F0DD009490A4A1268881801F02EF95D
:100F100007480068401C0649086001F067F901E0D5
:100F20000148806900BD000000001540F004002069
:100F300014010020F0B585B004460D461E4801AFEF
:100F40004EC84EC7002000901C4840690321090686
:100F50000840060E002020630320E060A0681849C6
:100F60000840A060012E04D1FFF750F9B10001AA9A
:100F70005050002D1ED0B10001AA51586A0888189F
:100F80002946FFF7CDF8801E00900E490098884250
:100F90000BD9B10001AA5158EA0088182946FFF779
:100FA000BFF80009801E606204E003210907009871
:100FB0000843606205B0F0BD5429000000020050F3
:100FC0000FFFF0FFFFFF000070B50346002510E0A3
:100FD000002406E0641C01208007844201D3002025
:100FE00070BD9869012636073042F3D0485D18601D
:100FF0006D1C9542ECD12846F2E730B47446641E6D
:101000002578641CAB4200D21D46635D5B00E3188B
:1010100030BC184702E008C8121F08C1002AFAD1E4
:1010200070477047002001E001C1121F002AFBD168
:101030007047000010B50246002009E01478521CE9
:1010400003125C406300054CE35A0402634098B20B
:101050000B464C1EA1B2002BF0DC10BD3227000065
:10106000F8B504460D460026207804283FD1607864
:10107000022806D0042812D005281AD006282DD11F
:1010800022E008202070022060700020A0708920DB
:10109000E070002020716071062028801EE006208C
:1010A0002070042060700020A070E0700420288070
:1010B00014E006202070052060700320A070E82056
:1010C000E0700420288009E0062020706070552020
:1010D000A070F020E0700420288000BF00BF00272F
:1010E000002F05D0384600F0ABFF064600E003268F
:1010F0003046F8BD10B5002407480078012807D114
:10110000054894300068804700200349087000E0DB
:101110000624204610BD000044000020F0B585B034
:1011200004460D46002001902888052850D160789B
:101130000602A0780643701C86B2E0780002039095
:101140002079039908430390039801283DDB7D2112
:1011500009010398884238DA02940020288001208F
:10116000029C2070029C601C02902888401C2880F1
:1011700003984007400F07D00398C117490F09187B
:10118000C910491CCFB205E00398C117490F0918CF
:1011900049050F0E029807700298401C029028889B
:1011A000401C288031460023039A029800F092FCEC
:1011B00000900098002804D0009800F041FF0190B2
:1011C00008E02888C019288004E00320019001E08D
:1011D00003200190019805B0F0BDF0B585B004463C
:1011E0000D4600200190288805284FD1607806021E
:1011F000A0780643701C86B2E07800020390207944
:10120000039908430390039801283CDB7D210901E1
:101210000398884237DA0294002028800220029C3A
:101220002070029C601C02902888401C2880039833
:101230004007400F07D00398C117490F0918C9107C
:10124000491CCFB205E00398C117490F0918490599
:101250000F0E029807700298401C02902888401CCC
:1012600028803146039A029800F0E2FC0090009832
:10127000002804D0009800F0E3FE019008E02888E0
:10128000C019288004E00320019001E003200190B0
:10129000019805B0F0BDFEB504460D460020019052
:1012A0002888052839D160780602A0780643701C8A
:1012B00086B2E07807022779012F2BDB7D2F29DC0E
:1012C0000294002028800320029C2070029C601C55
:1012D00002902888401C28807806000E0299087029
:1012E0000298401C02902888401C28803A463146CB
:1012F0000023029800F044FD00900098002804D0DC
:10130000009800F09DFE019009E0288879004018BF
:10131000288004E00320019001E00320019001985F
:10132000FEBDFEB504460D46002001902888052824
:1013300039D160780602A0780643701C86B2E07846
:10134000070220790743012F2ADB7D2F28DA029438
:10135000002028800420029C2070029C601C0290C7
:101360002888401C28807806010E02980170029897
:10137000401C02902888401C28803A46314602983A
:1013800000F05EFD00900098002804D0009800F066
:1013900057FE019009E0288879004018288004E071
:1013A0000320019001E0032001900198FEBDF0B5FB
:1013B00087B004460D460020019028880A2868DB83
:1013C000607800020690A078069908430690069877
:1013D000401C80B20690E0780002059020790599C3
:1013E00008430590607900020490A07904990843AD
:1013F00004900498401C80B20490E07900020390AD
:10140000207A039908430390607A02900598012896
:101410003DDB05987D283ADC0398012837DB0398EB
:10142000792834DC03984000029988422FD1204665
:101430000A300123039A049900F0A2FC0746002F0A
:101440001ED126462880172030703446761C288806
:10145000401C288005984006000E3070761C2888B5
:10146000401C288030460023059A069900F088FC2D
:101470000746002F04D12888059949004018288084
:10148000002F06D0384600F0DBFD019001E003207C
:101490000190019807B0F0BD70B504460D460648AE
:1014A00002880649601CFEF751FE03480088401C74
:1014B0002880002070BD000040000020B004002003
:1014C000FEB504460D4600200090288805282BD143
:1014D00060780602A0780643701C86B22079002846
:1014E0001FD1E078FF2802D0E078002819D1002031
:1014F0006B465871E078FF2802D10120187102E094
:1015000000206B4618710122314601A8134600F0F5
:10151000E1FA0746002F09D0384600F091FD00900F
:1015200004E00320009001E0032000900098FEBD3D
:10153000F8B504460D46002000902888052813D1F0
:1015400060780602A0780643701C86B201223146FC
:10155000E01C134600F014FC0746002F06D0384666
:1015600000F06EFD009001E0032000900098F8BDAF
:10157000F0B585B004460D46002001902888052866
:101580003DDD60780602A0780643701C86B2E078E4
:10159000070220790743607903907807400F08D04D
:1015A0003846F917490FC919C910491CC9B2029127
:1015B00006E03846F917490FC9194905090E029185
:1015C000012F19DB7B200001874215DC039902986B
:1015D000884211D13A463146A01D012300F07AFA23
:1015E00000900098002804D0009800F029FD019098
:1015F00007E00520288004E00320019001E003209B
:101600000190019805B0F0BDFEB504460D460020DE
:1016100001902888062829DB60780602A078064316
:10162000701C86B2E0780702207907436079029047
:10163000012F18DB782F16DC7806000E02998842FD
:1016400011D13A463146A01D012300F099FB0090CC
:101650000098002804D0009800F0F2FC019007E008
:101660000520288004E00320019001E00320019080
:101670000198FEBDFFB581B004460D4616460A9F8F
:1016800000200090FF2D03D0002D01DBFE2D02DD98
:10169000022000903AE01F480570002C21D11E481E
:1016A0001C49C91D08601D48091D08601C480839EF
:1016B00008601C480C3108600020091D08601A48A9
:1016C0001A4908601A481B4908601B481B490860F2
:1016D0003B4631460F480078049A00F039F90090F3
:1016E00002E00220009000BF00BF009800280DD14A
:1016F00000F0C8FD002802D10320009006E0054854
:10170000401C0470012003498D390870009805B011
:10171000F0BD0000D1000020991A0000BD1A0000A1
:10172000111A0000A519000071230000E800002034
:1017300045240000EC00002001240000F0000020FF
:1017400038B5002581480078002801D0062038BD32
:10175000684600F085FD01287ED16B461B78FFF7B7
:101760004CFC0504058EF02EF100EBE0774A8A323E
:10177000911F081D034614331B6898470546002D2A
:101780000FD172488830007870498D3109788842CD
:1017900004D06E4888300078FF2802D1022000F083
:1017A00079FD082D0AD169488830007867498D3164
:1017B0000978884202D1042000F06CFDC2E0634841
:1017C0008430006800786149893108700120C91CA3
:1017D000087000241CE0E0005C49091D085C00283A
:1017E00000D117E0E0005949091D085C85310978EE
:1017F00088420CD1E0005549091D401886314268E5
:10180000881F0068904751498C31087002E0641CC1
:10181000102CE0DB00BF4D4888300078FF282DD029
:101820004A488C30007800281ED0002047498A3171
:101830000880481E01788020014344488A3002888D
:101840000088401C414B8A331880981F00688154DF
:10185000981C0278801E00E075E001880088401C1A
:101860001880981F0068425438488A300288801FC8
:1018700001680930007800F073FBC5B262E03348BC
:101880008430006800783149893108700120C91C12
:10189000087000241CE0E0002C49091D085C0028A9
:1018A00000D117E0E0002949091D085C853109785D
:1018B00088420CD1E0002549091D40188631426854
:1018C000881F0068904721498C31087002E0641C31
:1018D000102CE0DB00BF1D4888300078FF282ED098
:1018E0001A488C30007800281DD0002017498A3112
:1018F0000880481E01788020014314488A300288FD
:101900000088401C114B8A331880981F006881544E
:10191000981C0178801E02880088401C1880981F3F
:10192000006881540EE009488A300288801F0168EF
:1019300009300078054B90331B689847054601E055
:10194000FFE700BF00BF002001E7000044000020C7
:10195000F8B50C4615461E460027FEF7E9FD33464E
:1019600008222946204600F0A7FC012801D00327C1
:1019700012E04B200002854202D92320009004E0AF
:1019800069000748FEF7CCFB0090009988B200F090
:10199000CFFC012800D00327FEF7CCFD3846F8BD68
:1019A000A07F1700F8B504460D4616460027FEF73F
:1019B000BFFD15480088042811DB1348018813482F
:1019C00000F06AFB00280AD11048007820700E4809
:1019D0000088C01E30800D48401C28600FE00A4877
:1019E000008804280ADB094800792070064800882E
:1019F00030800648801D2860082700E00527FEF794
:101A000099FD3846F8BD00003E000020B0030020DC
:101A1000F8B504460D46164600200090FEF788FDF6
:101A20001B48007801282DD1681E1949C91C08607F
:101A30000120091D0880081F0068047008460088FE
:101A40008019088008460188001F006800F024FB08
:101A500007460F4AD21D1088421C0D4BDB1D1A8011
:101A60000C4A175439121A461088421C1A80094A27
:101A7000115401201946083908700121002000F096
:101A800025FB01E005200090FEF754FD0098F8BD0D
:101A900035000020B003002010B5FEF749FD0020FE
:101AA000054908700021012000F010FB00F046FB02
:101AB000FEF740FD10BD00003500002010B5FEF718
:101AC00037FD0021084600F001FB00F021FBFEF786
:101AD00031FD10BDFFB589B004460D461646002005
:101AE00008903046F117490F8919C910491C069111
:101AF00000F0B4FB00280FD000F0CCFA48494018A1
:101B00000590012004900820039046480088C0B248
:101B1000029001200C9009E04348059001200490B8
:101B20000820039041480088C0B202900498854282
:101B300071DBA819039A0499891888426BDC029911
:101B4000681AC117490F0918CF100299681AC117EE
:101B5000490F0918C910C900411A07910C980028AB
:101B600002D0012855D126E00EE007998BB2394604
:101B70007F1C059A88180822194600F09BFC2070EB
:101B8000641C0698401E069006980028EDDC641E32
:101B90003046F117490F8919C910C900711A8EB260
:101BA00020780821891B8840207020780821891B13
:101BB000084120702DE010E02378641C079880B263
:101BC000009038467F1C0599401808220190009922
:101BD00000F087FC0698401E069006980128EBDC72
:101BE0003046F117490F8919C910C900711A8EB210
:101BF000002E0DD02378641CF2B2079880B20090BA
:101C000038467F1C059940180190009900F069FC46
:101C100000BF02E0FFE70120089008980DB0F0BD7A
:101C2000A00100201A000020310000201200002036
:101C3000F0B589B004460F461546002008902846A6
:101C4000E917490F4919C910491C059100F006FB15
:101C500000280CD000F01EFA4549461801200490D7
:101C60000820039043480088C0B2029008E0424E2A
:101C7000012004900820039040480088C0B20290E0
:101C8000049887426EDB7819039A04998918884270
:101C900068DC0299781AC117490F0918C910079111
:101CA0000299781AC117490F0918C910C900411AB9
:101CB000069100F0D3FA00282DD010E02378641CA0
:101CC000069880B200900798411C8019082207915D
:101CD0000190009900F005FC0598401E05900598BC
:101CE0000128EBDC2846E917490F4919C910C9003A
:101CF000691A8DB2002D37D02378641CEAB2069899
:101D000080B200900798411C8019079101900099BA
:101D100000F0E7FB28E00EE006998BB207994A1C19
:101D2000881907920822194600F0C4FB2070641C31
:101D30000598401E059005980028EDDC641E284695
:101D4000E917490F4919C910C900691A8DB22078DD
:101D50000821491B8840207020780821491B084130
:101D6000207001E001200890089809B0F0BD000043
:101D700090010020180000203000002010000020FA
:101D8000FFB583B004460020029000F067FA0028F7
:101D90000ED000F07FF90001254FC519012608205B
:101DA000019024480088C0B200900120069007E00E
:101DB000214D01261820019020480088C0B20090D3
:101DC000B14230DB8818019FF719B8422BDC00982C
:101DD0000B1A0698002802D0012823D10FE00BE04F
:101DE0005800285A00122070641C5800285A20708D
:101DF000641C5B1C501E82B2002AF1DC12E00EE073
:101E00002078641C00025F00E8532078641C5F00A7
:101E1000EF5B38435F00E8535B1C501E82B2002A20
:101E2000EEDC00BF01E001200290029807B0F0BD97
:101E3000B00200201E0000206001002016000020DB
:101E4000FEB503460020029000F008FA00280CD0EE
:101E500000F020F90001204FC5190126082001904B
:101E60001E480088C0B2009007E01D4D01260820E2
:101E700001901C480088C0B20090B14227DB88184E
:101E8000019FF719B84222DC00980C1A1CE000F000
:101E9000E5F900280CD018785B1C00026700E853B5
:101EA00018785B1C6700EF5B38436700E85308E075
:101EB0006000285A001218705B1C6000285A1870C5
:101EC0005B1C641C501E82B2002AE0DC01E0012091
:101ED00002900298FEBD0000B00100201C0000200E
:101EE000500100201400002008B500BF06E0592072
:101EF00019490860162008608820086016480068A4
:101F00000128F4D100BFFEF767FEFEF763FBFEF782
:101F100077FAFEF727FB1149087000BF00200E4931
:101F2000086000BF00220D480092017810464B2344
:101F3000DB01FFF79FFBFFF7DDF80BE0FFF700FC8D
:101F4000FEF714FEFEF798FBFEF71CFAFEF78CFA7C
:101F5000FEF7AEFAF2E7000000010050000000209A
:101F6000F8B504460D46164600200090FEF7E0FA4C
:101F7000002E03D1FEF7DEFA0098F8BD2E48007857
:101F8000012853D12D482C49C91C0860FF2009683D
:101F9000087055202849C91C096848700520264941
:101FA000C91C0968887000202349C91C0968C870C9
:101FB0002148C01C0068047100201F49C91C096821
:101FC000487106201C49C91D0880091F09681A4A62
:101FD000D21D1288881832462946FEF7B7F81648EF
:101FE000C01D008880191449C91D08800846018851
:101FF000001F0068FFF71EF8074639120E4AD21D6F
:102000001088421C0C4BDB1D1A800C4A11541A46D6
:102010001088421C1A80094A1754012019460839B1
:1020200008700121002000F051F801E00520009027
:10203000FEF780FA0098A0E735000020B0030020EA
:102040000146002904D0012904D0072906D103E064
:10205000002005E0022003E0062001E0042000BF8C
:1020600000BF704710B502480068804710BD0000EF
:10207000F000002010B502480068804710BD000045
:10208000E800002010B502480068804710BD00003D
:10209000EC0000200020704770B50246FF23FF24AB
:1020A00008E01578521C65400648405D58400446DB
:1020B0000548435D08464E1EB1B20028F1D1180212
:1020C000204370BD3225000032260000002806D0D3
:1020D0000E4A526801231A430C4B5A6005E00B4A22
:1020E000526852085200094B5A60002906D0074A2C
:1020F000526802231A43054B5A6005E0034A5268AE
:1021000002239A43014B5A607047000000000540CB
:1021100000BF074800680121890788430449086017
:1021200000BF0020034908700349086070470000A1
:1021300020000140040000200800002010B501200C
:10214000074908700020074908600748FEF7C5FDE9
:102150000920FEF73BFB0448FEF742FE10BD0000DD
:102160000400002008000020200001400146024831
:10217000006808700120704700001540F8B505465A
:102180000C4616461F461148FEF75CFD002203214F
:1021900009060F48FEF7B6F80D48FEF727F8214666
:1021A0000C48FEF7C7FEFEF7C3F90A484068012154
:1021B00008430849486002210D20FEF793FB0D20DB
:1021C000FEF70EFBFEF7B6F90120F8BD1100000482
:1021D000113D802700001540002002490870024987
:1021E00008607047190100201C01002001200349EC
:1021F00008700020024908607047000019010020A3
:102200001C01002010B5044611480480114A012128
:10221000C9061148FEF7AAFD00BF0F48006801215A
:10222000490708430C49086000BF04210A20FEF753
:1022300059FB0A20FEF7D4FA00BF074800680121C5
:10224000890708430449086000BF012010BD000051
:102250002C010020204E000000001140002070479B
:1022600001460020064A1278002A07D0044A521E6E
:1022700012780A700022024B1A7001207047000089
:102280000200002000200249087001207047000071
:102290000200002001460120024A1070501E017009
:1022A00001207047020000200146024800680870C3
:1022B0000120704700000540F8B505460C4616465B
:1022C0001F461348FEF7BEFC0022032109061148F1
:1022D000FEF718F80F48FDF789FF21460E48FEF774
:1022E00029FEFEF725F90C484068012108430A49F8
:1022F000486003210C20FEF77DFA00BF0C2101206D
:1023000088400649086000BFFEF714F90120F8BDB7
:1023100010000004103D80270000054000E100E0AF
:10232000014602480160012070470000000005409E
:1023300010B504460B4804800B4A0121C9060B481E
:10234000FEF714FD0948FEF7C8FC03210920FEF73B
:102350008DFA0920FEF73AFA0448FEF741FD012004
:1023600010BD00000C000020204E000020000140A5
:1023700038B500246846FFF797FF1F48007800280B
:1023800006D001280AD002281BD0032830D102E051
:10239000FFF7D4FE2CE0FFF7D1FE29E0002016491C
:1023A000093108806B461A780888411C124B0933A2
:1023B000198012490A5402200F490870FFF7BEFE27
:1023C00016E00D4809300088FF280BDC6B461A78B0
:1023D000094909310888411C074B0933198007490D
:1023E0000A5402E0032004490870FFF7A7FE00BF6B
:1023F00000BF204638BD000035000020B00300209B
:1024000010B500240E480078002804D0022807D018
:1024100003280BD109E00020FFF73CFF044606E04B
:102420000120FFF737FF044601E000E000BF00BFD6
:10243000FFF76EFE012002490870204610BD000023
:102440003500002010B5002419480078002802D07B
:10245000012829D104E000210120FFF737FE23E005
:10246000134808300088002812D01149091D096856
:102470000878FFF755FF0E48001D0068401C0C4906
:10248000091D0860081D0088401E091D08800AE01B
:102490000320FFF7FFFE044600210120FFF716FE90
:1024A00000200349087000BF00BF204610BD000097
:1024B00034000020F0B50346CE08F000081A87B2B9
:1024C00001209040401E85B29C5D701C185C00028B
:1024D00004432046384184B2204628400446E0B2F6
:1024E000F0BDFFB582B00093CD08EE008E1BB6B2F2
:1024F0000196009B1F46019EB740BEB20096012781
:10250000049EB7407E1EB4B2EE008E1B2746B74035
:10251000BCB2425D6E1C865D360232431646A6434F
:10252000009F3E433246425516126F1CC65506B0F8
:10253000F0BD00C1814001C0804101C0804100C1A7
:10254000814001C0804100C1814000C1814001C083
:10255000804101C0804100C1814000C1814001C073
:10256000804100C1814001C0804101C0804100C163
:10257000814001C0804100C1814000C1814001C053
:10258000804100C1814001C0804101C0804100C143
:10259000814000C1814001C0804101C0804100C133
:1025A000814001C0804100C1814000C1814001C023
:1025B000804101C0804100C1814000C1814001C013
:1025C000804100C1814001C0804101C0804100C103
:1025D000814000C1814001C0804101C0804100C1F3
:1025E000814001C0804100C1814000C1814001C0E3
:1025F000804100C1814001C0804101C0804100C1D3
:10260000814001C0804100C1814000C1814001C0C2
:10261000804101C0804100C1814000C1814001C0B2
:10262000804100C1814001C0804101C0804100C1A2
:10263000814000C0C101C30302C2C60607C705C569
:10264000C404CC0C0DCD0FCFCE0E0ACACB0BC909DA
:1026500008C8D81819D91BDBDA1A1EDEDF1FDD1DEA
:102660001CDC14D4D515D71716D6D21213D311D11A
:10267000D010F03031F133F3F23236F6F737F5356A
:1026800034F43CFCFD3DFF3F3EFEFA3A3BFB39F99A
:10269000F83828E8E929EB2B2AEAEE2E2FEF2DED6A
:1026A000EC2CE42425E527E7E62622E2E323E121DA
:1026B00020E0A06061A163A3A26266A6A767A565EA
:1026C00064A46CACAD6DAF6F6EAEAA6A6BAB69A95A
:1026D000A86878B8B979BB7B7ABABE7E7FBF7DBD6A
:1026E000BC7CB47475B577B7B67672B2B373B1719A
:1026F00070B050909151935352929656579755956A
:1027000094549C5C5D9D5F9F9E5E5A9A9B5B995919
:102710005898884849894B8B8A4A4E8E8F4F8D4DE9
:102720004C8C448485458747468682424383418159
:10273000804000002110422063308440A550C660D4
:10274000E770088129914AA16BB18CC1ADD1CEE16E
:10275000EFF13112100273325222B5529442F772E5
:10276000D662399318837BB35AA3BDD39CC3FFF3BE
:10277000DEE36224433420040114E664C774A444F5
:1027800085546AA54BB528850995EEE5CFF5ACC50E
:102790008DD55336722611163006D776F6669556C5
:1027A000B4465BB77AA719973887DFF7FEE79DD75E
:1027B000BCC7C448E5588668A77840086118022855
:1027C0002338CCC9EDD98EE9AFF9488969990AA9AE
:1027D0002BB9F55AD44AB77A966A711A500A333A25
:1027E000122AFDDBDCCBBFFB9EEB799B588B3BBBFE
:1027F0001AABA66C877CE44CC55C222C033C600CB5
:10280000411CAEED8FFDECCDCDDD2AAD0BBD688D4D
:10281000499D977EB66ED55EF44E133E322E511E04
:10282000700E9FFFBEEFDDDFFCCF1BBF3AAF599F9D
:10283000788F8891A981CAB1EBA10CD12DC14EF13D
:102840006FE18010A100C230E320045025404670A3
:102850006760B9839893FBA3DAB33DC31CD37FE3CE
:102860005EF3B1029012F322D232354214527762F3
:102870005672EAB5CBA5A89589856EF54FE52CD59E
:102880000DC5E234C324A014810466744764245443
:102890000544DBA7FAB79987B8975FE77EF71DC7AE
:1028A0003CD7D326F2369106B01657667676154693
:1028B00034564CD96DC90EF92FE9C899E9898AB9FE
:1028C000ABA94458654806782768C018E1088238E3
:1028D000A3287DCB5CDB3FEB1EFBF98BD89BBBAB0E
:1028E0009ABB754A545A376A167AF10AD01AB32A33
:1028F000923A2EFD0FED6CDD4DCDAABD8BADE89D5E
:10290000C98D267C076C645C454CA23C832CE01C82
:10291000C10C1FEF3EFF5DCF7CDF9BAFBABFD98FED
:10292000F89F176E367E554E745E932EB23ED10ED2
:10293000F01E0000001BB7000000000000000000B7
:102940000000000000000000102700000000000050
:1029500000805101001BB7000000000000000000D3
:1029600000805101001BB7000000000000000000C3
:1029700000805101001BB7000000000000000000B3
:1029800000805101001BB7000000000080F0FA0237
:102990001027000000000000000000000000000000
:1029A00000805101C42900000000002050010000F7
:1029B00094010000202A00005001002020060000A1
:1029C000241000000110DA010222301B2031041310
:1029D00050011B20600401143202320423611032C2
:1029E000114B9914102323133203239712191B112F
:1029F000230916320623311532171AAF2032011A75
:102A00001D3532051AC138320F1A712029542ADBBC
:102A10004D015B5E80F0FA0232080247FF000000C1
:04000005000000D522
:00000001FF
